{
  "contractName": "LiquidityValueCalculator",
  "abi": [
    {
      "inputs": [
        {
          "internalType": "address",
          "name": "factory_",
          "type": "address"
        }
      ],
      "stateMutability": "nonpayable",
      "type": "constructor"
    },
    {
      "inputs": [],
      "name": "factory",
      "outputs": [
        {
          "internalType": "address",
          "name": "",
          "type": "address"
        }
      ],
      "stateMutability": "view",
      "type": "function",
      "constant": true
    },
    {
      "inputs": [
        {
          "internalType": "address",
          "name": "pairAddress",
          "type": "address"
        },
        {
          "internalType": "uint256",
          "name": "amount",
          "type": "uint256"
        }
      ],
      "name": "getPriceOfToken",
      "outputs": [
        {
          "internalType": "uint256",
          "name": "",
          "type": "uint256"
        }
      ],
      "stateMutability": "view",
      "type": "function",
      "constant": true
    }
  ],
  "bytecode": "0x608060405234801561001057600080fd5b506040516101e13803806101e18339818101604052602081101561003357600080fd5b8101908080519060200190929190505050806000806101000a81548173ffffffffffffffffffffffffffffffffffffffff021916908373ffffffffffffffffffffffffffffffffffffffff1602179055505061014d806100946000396000f3fe608060405234801561001057600080fd5b50600436106100365760003560e01c806388c342ea1461003b578063c45a01551461009d575b600080fd5b6100876004803603604081101561005157600080fd5b81019080803573ffffffffffffffffffffffffffffffffffffffff169060200190929190803590602001909291905050506100e7565b6040518082815260200191505060405180910390f35b6100a56100f2565b604051808273ffffffffffffffffffffffffffffffffffffffff1673ffffffffffffffffffffffffffffffffffffffff16815260200191505060405180910390f35b600080905092915050565b6000809054906101000a900473ffffffffffffffffffffffffffffffffffffffff168156fea26469706673582212205f4d66c5354e45f0f1a8d4ea1d6243236463eada8621b14a21a4dba6a0e2b30a64736f6c63430006060033",
  "immutableReferences": {},
  "source": "pragma solidity ^0.6.6;\n\nimport '@uniswap/v2-periphery/contracts/libraries/UniswapV2Library.sol';\nimport '@uniswap/v2-core/contracts/interfaces/IUniswapV2Pair.sol';\n\nimport './interfaces/IERC20.sol';\nimport './interfaces/ILiquidityValueCalculator.sol';\n\ncontract LiquidityValueCalculator is ILiquidityValueCalculator {\n  address public factory;\n\n  constructor(address factory_) public {\n    factory = factory_;\n  }\n\n  function getPriceOfToken(address pairAddress, uint amount) external override view returns(uint) {\n    // IUniswapV2Pair pair = IUniswapV2Pair(pairAddress);\n    // IERC20 token1 = IERC20(pair.token1());\n\n    // (uint Res0, uint Res1,) = pair.getReserves();\n\n    // uint res0 = Res0 * (10 ** 18);\n\n    // return (amount * res0) / Res1;\n    return 0;\n  }\n}",
  "sourcePath": "/Users/nrjshka/Documents/Development/Projects/smartcontracts/priceWatcher/contracts/LiquidityValueCalculator.sol",
  "compiler": {
    "name": "solc",
    "version": "0.6.6+commit.6c089d02.Emscripten.clang"
  },
  "schemaVersion": "3.4.3",
  "updatedAt": "2021-11-19T13:19:09.939Z",
  "networkType": "ethereum",
  "devdoc": {
    "methods": {}
  },
  "userdoc": {
    "methods": {}
  }
}