{
  "contractName": "LiquidityValueCalculator",
  "abi": [
    {
      "inputs": [
        {
          "internalType": "address",
          "name": "factory_",
          "type": "address"
        }
      ],
      "stateMutability": "nonpayable",
      "type": "constructor"
    },
    {
      "inputs": [],
      "name": "factory",
      "outputs": [
        {
          "internalType": "address",
          "name": "",
          "type": "address"
        }
      ],
      "stateMutability": "view",
      "type": "function"
    },
    {
      "inputs": [
        {
          "internalType": "address",
          "name": "pairAddress",
          "type": "address"
        },
        {
          "internalType": "uint256",
          "name": "amount",
          "type": "uint256"
        }
      ],
      "name": "getPriceOfToken",
      "outputs": [
        {
          "internalType": "uint256",
          "name": "",
          "type": "uint256"
        }
      ],
      "stateMutability": "view",
      "type": "function"
    }
  ],
  "bytecode": "0x608060405234801561001057600080fd5b506040516103463803806103468339818101604052602081101561003357600080fd5b8101908080519060200190929190505050806000806101000a81548173ffffffffffffffffffffffffffffffffffffffff021916908373ffffffffffffffffffffffffffffffffffffffff160217905550506102b2806100946000396000f3fe608060405234801561001057600080fd5b50600436106100365760003560e01c806388c342ea1461003b578063c45a01551461009d575b600080fd5b6100876004803603604081101561005157600080fd5b81019080803573ffffffffffffffffffffffffffffffffffffffff169060200190929190803590602001909291905050506100e7565b6040518082815260200191505060405180910390f35b6100a5610257565b604051808273ffffffffffffffffffffffffffffffffffffffff1673ffffffffffffffffffffffffffffffffffffffff16815260200191505060405180910390f35b60008083905060008173ffffffffffffffffffffffffffffffffffffffff1663d21220a76040518163ffffffff1660e01b815260040160206040518083038186803b15801561013557600080fd5b505afa158015610149573d6000803e3d6000fd5b505050506040513d602081101561015f57600080fd5b810190808051906020019092919050505090506000808373ffffffffffffffffffffffffffffffffffffffff16630902f1ac6040518163ffffffff1660e01b815260040160606040518083038186803b1580156101bb57600080fd5b505afa1580156101cf573d6000803e3d6000fd5b505050506040513d60608110156101e557600080fd5b81019080805190602001909291908051906020019092919080519060200190929190505050506dffffffffffffffffffffffffffff1691506dffffffffffffffffffffffffffff1691506000670de0b6b3a764000083029050818188028161024957fe5b049550505050505092915050565b6000809054906101000a900473ffffffffffffffffffffffffffffffffffffffff168156fea26469706673582212209f91d25355d5303e993fa48ea8aec367dea76296eab66d2f5206c53fffce10fa64736f6c63430006060033",
  "immutableReferences": {},
  "source": "pragma solidity ^0.6.6;\n\nimport '@uniswap/v2-periphery/contracts/libraries/UniswapV2Library.sol';\nimport '@uniswap/v2-core/contracts/interfaces/IUniswapV2Pair.sol';\n\nimport './interfaces/IERC20.sol';\nimport './interfaces/ILiquidityValueCalculator.sol';\n\ncontract LiquidityValueCalculator is ILiquidityValueCalculator {\n  address public factory;\n\n  constructor(address factory_) public {\n    factory = factory_;\n  }\n\n  function getPriceOfToken(address pairAddress, uint amount) external override view returns(uint) {\n    IUniswapV2Pair pair = IUniswapV2Pair(pairAddress);\n    IERC20 token1 = IERC20(pair.token1());\n\n    (uint Res0, uint Res1,) = pair.getReserves();\n\n    uint res0 = Res0 * (10 ** 18);\n\n    return (amount * res0) / Res1;\n  }\n}",
  "sourcePath": "/Users/nrjshka/Documents/Development/Projects/smartcontracts/priceWatcher/contracts/LiquidityValueCalculator.sol",
  "compiler": {
    "name": "solc",
    "version": "0.6.6+commit.6c089d02.Emscripten.clang"
  },
  "schemaVersion": "3.4.3",
  "updatedAt": "2021-11-18T22:29:49.129Z",
  "devdoc": {
    "methods": {}
  },
  "userdoc": {
    "methods": {}
  }
}