{
  "contractName": "LiquidityValueCalculator",
  "abi": [
    {
      "inputs": [
        {
          "internalType": "address",
          "name": "factory_",
          "type": "address"
        }
      ],
      "stateMutability": "nonpayable",
      "type": "constructor"
    },
    {
      "inputs": [],
      "name": "factory",
      "outputs": [
        {
          "internalType": "address",
          "name": "",
          "type": "address"
        }
      ],
      "stateMutability": "view",
      "type": "function",
      "constant": true
    },
    {
      "inputs": [
        {
          "internalType": "address",
          "name": "tokenA",
          "type": "address"
        },
        {
          "internalType": "address",
          "name": "tokenB",
          "type": "address"
        }
      ],
      "name": "getPriceOfToken",
      "outputs": [
        {
          "internalType": "uint256",
          "name": "",
          "type": "uint256"
        }
      ],
      "stateMutability": "view",
      "type": "function",
      "constant": true
    },
    {
      "inputs": [
        {
          "internalType": "address",
          "name": "tokenA",
          "type": "address"
        },
        {
          "internalType": "address",
          "name": "tokenB",
          "type": "address"
        }
      ],
      "name": "pairInfo",
      "outputs": [
        {
          "internalType": "uint256",
          "name": "reserveA",
          "type": "uint256"
        },
        {
          "internalType": "uint256",
          "name": "reserveB",
          "type": "uint256"
        },
        {
          "internalType": "uint256",
          "name": "totalSupply",
          "type": "uint256"
        }
      ],
      "stateMutability": "view",
      "type": "function",
      "constant": true
    }
  ],
  "bytecode": "0x608060405234801561001057600080fd5b506040516109ef3803806109ef8339818101604052602081101561003357600080fd5b8101908080519060200190929190505050806000806101000a81548173ffffffffffffffffffffffffffffffffffffffff021916908373ffffffffffffffffffffffffffffffffffffffff1602179055505061095b806100946000396000f3fe608060405234801561001057600080fd5b50600436106100415760003560e01c806356a8606a14610046578063c3dd56b9146100be578063c45a015514610144575b600080fd5b6100a86004803603604081101561005c57600080fd5b81019080803573ffffffffffffffffffffffffffffffffffffffff169060200190929190803573ffffffffffffffffffffffffffffffffffffffff16906020019092919050505061018e565b6040518082815260200191505060405180910390f35b610120600480360360408110156100d457600080fd5b81019080803573ffffffffffffffffffffffffffffffffffffffff169060200190929190803573ffffffffffffffffffffffffffffffffffffffff1690602001909291905050506103bd565b60405180848152602001838152602001828152602001935050505060405180910390f35b61014c610609565b604051808273ffffffffffffffffffffffffffffffffffffffff1673ffffffffffffffffffffffffffffffffffffffff16815260200191505060405180910390f35b6000806000809054906101000a900473ffffffffffffffffffffffffffffffffffffffff1673ffffffffffffffffffffffffffffffffffffffff1663e6a4390585856040518363ffffffff1660e01b8152600401808373ffffffffffffffffffffffffffffffffffffffff1673ffffffffffffffffffffffffffffffffffffffff1681526020018273ffffffffffffffffffffffffffffffffffffffff1673ffffffffffffffffffffffffffffffffffffffff1681526020019250505060206040518083038186803b15801561026357600080fd5b505afa158015610277573d6000803e3d6000fd5b505050506040513d602081101561028d57600080fd5b810190808051906020019092919050505090506000808273ffffffffffffffffffffffffffffffffffffffff16630902f1ac6040518163ffffffff1660e01b815260040160606040518083038186803b1580156102e957600080fd5b505afa1580156102fd573d6000803e3d6000fd5b505050506040513d606081101561031357600080fd5b81019080805190602001909291908051906020019092919080519060200190929190505050506dffffffffffffffffffffffffffff1691506dffffffffffffffffffffffffffff1691506000808673ffffffffffffffffffffffffffffffffffffffff168873ffffffffffffffffffffffffffffffffffffffff161061039a57828461039d565b83835b9150915081620f42408202816103af57fe5b049550505050505092915050565b6000806000806103ef6000809054906101000a900473ffffffffffffffffffffffffffffffffffffffff16878761062e565b90508073ffffffffffffffffffffffffffffffffffffffff166318160ddd6040518163ffffffff1660e01b815260040160206040518083038186803b15801561043757600080fd5b505afa15801561044b573d6000803e3d6000fd5b505050506040513d602081101561046157600080fd5b810190808051906020019092919050505091506000808273ffffffffffffffffffffffffffffffffffffffff16630902f1ac6040518163ffffffff1660e01b815260040160606040518083038186803b1580156104bd57600080fd5b505afa1580156104d1573d6000803e3d6000fd5b505050506040513d60608110156104e757600080fd5b81019080805190602001909291908051906020019092919080519060200190929190505050506dffffffffffffffffffffffffffff1691506dffffffffffffffffffffffffffff1691508273ffffffffffffffffffffffffffffffffffffffff16630dfe16816040518163ffffffff1660e01b815260040160206040518083038186803b15801561057757600080fd5b505afa15801561058b573d6000803e3d6000fd5b505050506040513d60208110156105a157600080fd5b810190808051906020019092919050505073ffffffffffffffffffffffffffffffffffffffff168873ffffffffffffffffffffffffffffffffffffffff16146105eb5780826105ee565b81815b80965081975050508585859550955095505050509250925092565b6000809054906101000a900473ffffffffffffffffffffffffffffffffffffffff1681565b600080600061063d8585610789565b91509150858282604051602001808373ffffffffffffffffffffffffffffffffffffffff1673ffffffffffffffffffffffffffffffffffffffff1660601b81526014018273ffffffffffffffffffffffffffffffffffffffff1673ffffffffffffffffffffffffffffffffffffffff1660601b8152601401925050506040516020818303038152906040528051906020012060405160200180807fff000000000000000000000000000000000000000000000000000000000000008152506001018373ffffffffffffffffffffffffffffffffffffffff1673ffffffffffffffffffffffffffffffffffffffff1660601b8152601401828152602001807f96e8ac4277198ff8b6f785478aa9a39f403cb768dd02cbee326c3e7da348845f815250602001925050506040516020818303038152906040528051906020012060001c925050509392505050565b6000808273ffffffffffffffffffffffffffffffffffffffff168473ffffffffffffffffffffffffffffffffffffffff161415610811576040517f08c379a00000000000000000000000000000000000000000000000000000000081526004018080602001828103825260258152602001806109016025913960400191505060405180910390fd5b8273ffffffffffffffffffffffffffffffffffffffff168473ffffffffffffffffffffffffffffffffffffffff161061084b57828461084e565b83835b8092508193505050600073ffffffffffffffffffffffffffffffffffffffff168273ffffffffffffffffffffffffffffffffffffffff1614156108f9576040517f08c379a000000000000000000000000000000000000000000000000000000000815260040180806020018281038252601e8152602001807f556e697377617056324c6962726172793a205a45524f5f41444452455353000081525060200191505060405180910390fd5b925092905056fe556e697377617056324c6962726172793a204944454e544943414c5f414444524553534553a2646970667358221220f075f2007518d03e99945994334e88d2ce67b0d91ed7d1de809a7ff61c282b8964736f6c63430006060033",
  "immutableReferences": {},
  "source": "pragma solidity ^0.6.6;\n\nimport '@uniswap/v2-periphery/contracts/libraries/UniswapV2Library.sol';\nimport '@uniswap/v2-core/contracts/interfaces/IUniswapV2Pair.sol';\nimport '@uniswap/v2-core/contracts/interfaces/IUniswapV2ERC20.sol';\nimport '@uniswap/v2-core/contracts/interfaces/IUniswapV2Factory.sol';\n\nimport './interfaces/ILiquidityValueCalculator.sol';\n\ncontract LiquidityValueCalculator is ILiquidityValueCalculator {\n  address public factory;\n\n  constructor(address factory_) public {\n    factory = factory_;\n  }\n\n  function getPriceOfToken(address tokenA, address tokenB) external override view returns(uint) {\n    address pair = IUniswapV2Factory(factory).getPair(tokenA, tokenB);\n    (uint left, uint right,) = IUniswapV2Pair(pair).getReserves();\n    (uint tokenReserves, uint ethReserves) = (tokenA < tokenB) ?\n        (left, right) : (right, left);\n    return (ethReserves * 1000000) / tokenReserves;\n  }\n\n  function pairInfo(address tokenA, address tokenB) external view returns (uint reserveA, uint reserveB, uint totalSupply) {\n    IUniswapV2Pair pair = IUniswapV2Pair(UniswapV2Library.pairFor(factory, tokenA, tokenB));\n    totalSupply = pair.totalSupply();\n    (uint reserves0, uint reserves1,) = pair.getReserves();\n    (reserveA, reserveB) = tokenA == pair.token0() ? (reserves0, reserves1) : (reserves1, reserves0);\n\n    return (reserveA, reserveB, totalSupply);\n  }\n}",
  "sourcePath": "/Users/nrjshka/Documents/Development/Projects/smartcontracts/priceWatcher/contracts/LiquidityValueCalculator.sol",
  "compiler": {
    "name": "solc",
    "version": "0.6.6+commit.6c089d02.Emscripten.clang"
  },
  "schemaVersion": "3.4.3",
  "updatedAt": "2021-11-19T15:34:51.348Z",
  "networkType": "ethereum",
  "devdoc": {
    "methods": {}
  },
  "userdoc": {
    "methods": {}
  }
}